{
  "_format": "hh-sol-artifact-1",
  "contractName": "SwapShop",
  "sourceName": "contracts/SwapShop.sol",
  "abi": [
    {
      "inputs": [],
      "stateMutability": "nonpayable",
      "type": "constructor"
    },
    {
      "inputs": [
        {
          "internalType": "address",
          "name": "owner",
          "type": "address"
        }
      ],
      "name": "OwnableInvalidOwner",
      "type": "error"
    },
    {
      "inputs": [
        {
          "internalType": "address",
          "name": "account",
          "type": "address"
        }
      ],
      "name": "OwnableUnauthorizedAccount",
      "type": "error"
    },
    {
      "anonymous": false,
      "inputs": [
        {
          "indexed": true,
          "internalType": "address",
          "name": "previousOwner",
          "type": "address"
        },
        {
          "indexed": true,
          "internalType": "address",
          "name": "newOwner",
          "type": "address"
        }
      ],
      "name": "OwnershipTransferred",
      "type": "event"
    },
    {
      "anonymous": false,
      "inputs": [
        {
          "indexed": true,
          "internalType": "uint256",
          "name": "swapId",
          "type": "uint256"
        },
        {
          "indexed": false,
          "internalType": "address",
          "name": "accepter",
          "type": "address"
        },
        {
          "indexed": false,
          "internalType": "address",
          "name": "accepterNFTContract",
          "type": "address"
        },
        {
          "indexed": false,
          "internalType": "uint256",
          "name": "accepterTokenId",
          "type": "uint256"
        }
      ],
      "name": "SwapAccepted",
      "type": "event"
    },
    {
      "anonymous": false,
      "inputs": [
        {
          "indexed": true,
          "internalType": "uint256",
          "name": "swapId",
          "type": "uint256"
        }
      ],
      "name": "SwapCancelled",
      "type": "event"
    },
    {
      "anonymous": false,
      "inputs": [
        {
          "indexed": true,
          "internalType": "uint256",
          "name": "swapId",
          "type": "uint256"
        }
      ],
      "name": "SwapFinalised",
      "type": "event"
    },
    {
      "anonymous": false,
      "inputs": [
        {
          "indexed": true,
          "internalType": "uint256",
          "name": "swapId",
          "type": "uint256"
        },
        {
          "indexed": false,
          "internalType": "address",
          "name": "proposer",
          "type": "address"
        },
        {
          "indexed": false,
          "internalType": "address",
          "name": "proposedNFTContract",
          "type": "address"
        },
        {
          "indexed": false,
          "internalType": "uint256",
          "name": "proposedTokenId",
          "type": "uint256"
        }
      ],
      "name": "SwapProposed",
      "type": "event"
    },
    {
      "inputs": [
        {
          "internalType": "uint256",
          "name": "swapId",
          "type": "uint256"
        },
        {
          "internalType": "address",
          "name": "nftContract",
          "type": "address"
        },
        {
          "internalType": "uint256",
          "name": "tokenId",
          "type": "uint256"
        }
      ],
      "name": "acceptSwap",
      "outputs": [],
      "stateMutability": "nonpayable",
      "type": "function"
    },
    {
      "inputs": [
        {
          "internalType": "uint256",
          "name": "swapId",
          "type": "uint256"
        }
      ],
      "name": "cancelSwap",
      "outputs": [],
      "stateMutability": "nonpayable",
      "type": "function"
    },
    {
      "inputs": [
        {
          "internalType": "uint256",
          "name": "swapId",
          "type": "uint256"
        }
      ],
      "name": "confirmSwap",
      "outputs": [],
      "stateMutability": "nonpayable",
      "type": "function"
    },
    {
      "inputs": [],
      "name": "owner",
      "outputs": [
        {
          "internalType": "address",
          "name": "",
          "type": "address"
        }
      ],
      "stateMutability": "view",
      "type": "function"
    },
    {
      "inputs": [
        {
          "internalType": "address",
          "name": "nftContract",
          "type": "address"
        },
        {
          "internalType": "uint256",
          "name": "tokenId",
          "type": "uint256"
        }
      ],
      "name": "proposeSwap",
      "outputs": [],
      "stateMutability": "nonpayable",
      "type": "function"
    },
    {
      "inputs": [],
      "name": "renounceOwnership",
      "outputs": [],
      "stateMutability": "nonpayable",
      "type": "function"
    },
    {
      "inputs": [],
      "name": "swapCounter",
      "outputs": [
        {
          "internalType": "uint256",
          "name": "",
          "type": "uint256"
        }
      ],
      "stateMutability": "view",
      "type": "function"
    },
    {
      "inputs": [
        {
          "internalType": "uint256",
          "name": "",
          "type": "uint256"
        }
      ],
      "name": "swaps",
      "outputs": [
        {
          "internalType": "address",
          "name": "proposer",
          "type": "address"
        },
        {
          "internalType": "address",
          "name": "proposedNFTContract",
          "type": "address"
        },
        {
          "internalType": "uint256",
          "name": "proposedTokenId",
          "type": "uint256"
        },
        {
          "internalType": "address",
          "name": "accepter",
          "type": "address"
        },
        {
          "internalType": "address",
          "name": "accepterNFTContract",
          "type": "address"
        },
        {
          "internalType": "uint256",
          "name": "accepterTokenId",
          "type": "uint256"
        },
        {
          "internalType": "bool",
          "name": "proposerConfirmed",
          "type": "bool"
        },
        {
          "internalType": "bool",
          "name": "accepterConfirmed",
          "type": "bool"
        }
      ],
      "stateMutability": "view",
      "type": "function"
    },
    {
      "inputs": [
        {
          "internalType": "address",
          "name": "newOwner",
          "type": "address"
        }
      ],
      "name": "transferOwnership",
      "outputs": [],
      "stateMutability": "nonpayable",
      "type": "function"
    }
  ],
  "bytecode": "0x60806040523480156200001157600080fd5b5033600073ffffffffffffffffffffffffffffffffffffffff168173ffffffffffffffffffffffffffffffffffffffff1603620000885760006040517f1e4fbdf70000000000000000000000000000000000000000000000000000000081526004016200007f9190620001b1565b60405180910390fd5b6200009981620000a860201b60201c565b506000600281905550620001ce565b60008060009054906101000a900473ffffffffffffffffffffffffffffffffffffffff169050816000806101000a81548173ffffffffffffffffffffffffffffffffffffffff021916908373ffffffffffffffffffffffffffffffffffffffff1602179055508173ffffffffffffffffffffffffffffffffffffffff168173ffffffffffffffffffffffffffffffffffffffff167f8be0079c531659141344cd1fd0a4f28419497f9722a3daafe3b4186f6b6457e060405160405180910390a35050565b600073ffffffffffffffffffffffffffffffffffffffff82169050919050565b600062000199826200016c565b9050919050565b620001ab816200018c565b82525050565b6000602082019050620001c86000830184620001a0565b92915050565b61177d80620001de6000396000f3fe608060405234801561001057600080fd5b50600436106100935760003560e01c8063715018a611610066578063715018a61461010a57806381f77a9e146101145780638da5cb5b14610130578063f09c58291461014e578063f2fde38b1461018557610093565b806333bce8c3146100985780633b3c80df146100b657806354d6a2b7146100d25780636f0e4c32146100ee575b600080fd5b6100a06101a1565b6040516100ad91906112c4565b60405180910390f35b6100d060048036038101906100cb919061136e565b6101a7565b005b6100ec60048036038101906100e791906113ae565b610493565b005b610108600480360381019061010391906113db565b610948565b005b610112610b32565b005b61012e600480360381019061012991906113ae565b610b46565b005b610138610d1f565b604051610145919061143d565b60405180910390f35b610168600480360381019061016391906113ae565b610d48565b60405161017c989796959493929190611473565b60405180910390f35b61019f600480360381019061019a91906114f1565b610e2a565b005b60025481565b8173ffffffffffffffffffffffffffffffffffffffff166323b872dd3330846040518463ffffffff1660e01b81526004016101e49392919061151e565b600060405180830381600087803b1580156101fe57600080fd5b505af1158015610212573d6000803e3d6000fd5b505050506002600081548092919061022990611584565b91905055506040518061010001604052803373ffffffffffffffffffffffffffffffffffffffff1681526020018373ffffffffffffffffffffffffffffffffffffffff168152602001828152602001600073ffffffffffffffffffffffffffffffffffffffff168152602001600073ffffffffffffffffffffffffffffffffffffffff168152602001600081526020016000151581526020016000151581525060016000600254815260200190815260200160002060008201518160000160006101000a81548173ffffffffffffffffffffffffffffffffffffffff021916908373ffffffffffffffffffffffffffffffffffffffff16021790555060208201518160010160006101000a81548173ffffffffffffffffffffffffffffffffffffffff021916908373ffffffffffffffffffffffffffffffffffffffff1602179055506040820151816002015560608201518160030160006101000a81548173ffffffffffffffffffffffffffffffffffffffff021916908373ffffffffffffffffffffffffffffffffffffffff16021790555060808201518160040160006101000a81548173ffffffffffffffffffffffffffffffffffffffff021916908373ffffffffffffffffffffffffffffffffffffffff16021790555060a0820151816005015560c08201518160060160006101000a81548160ff02191690831515021790555060e08201518160060160016101000a81548160ff0219169083151502179055509050506002547f8454d92b63d85b3368526569d56338576587b05a6087fd904b296afc4345284d3384846040516104879392919061151e565b60405180910390a25050565b60006001600083815260200190815260200160002090503373ffffffffffffffffffffffffffffffffffffffff168160000160009054906101000a900473ffffffffffffffffffffffffffffffffffffffff1673ffffffffffffffffffffffffffffffffffffffff16148061055757503373ffffffffffffffffffffffffffffffffffffffff168160030160009054906101000a900473ffffffffffffffffffffffffffffffffffffffff1673ffffffffffffffffffffffffffffffffffffffff16145b610596576040517f08c379a000000000000000000000000000000000000000000000000000000000815260040161058d90611629565b60405180910390fd5b8060060160009054906101000a900460ff1615806105c357508060060160019054906101000a900460ff16155b610602576040517f08c379a00000000000000000000000000000000000000000000000000000000081526004016105f9906116bb565b60405180910390fd5b3373ffffffffffffffffffffffffffffffffffffffff168160000160009054906101000a900473ffffffffffffffffffffffffffffffffffffffff1673ffffffffffffffffffffffffffffffffffffffff1603610719578060010160009054906101000a900473ffffffffffffffffffffffffffffffffffffffff1673ffffffffffffffffffffffffffffffffffffffff166323b872dd308360000160009054906101000a900473ffffffffffffffffffffffffffffffffffffffff1684600201546040518463ffffffff1660e01b81526004016106e29392919061151e565b600060405180830381600087803b1580156106fc57600080fd5b505af1158015610710573d6000803e3d6000fd5b5050505061082d565b3373ffffffffffffffffffffffffffffffffffffffff168160030160009054906101000a900473ffffffffffffffffffffffffffffffffffffffff1673ffffffffffffffffffffffffffffffffffffffff160361082c578060040160009054906101000a900473ffffffffffffffffffffffffffffffffffffffff1673ffffffffffffffffffffffffffffffffffffffff166323b872dd308360030160009054906101000a900473ffffffffffffffffffffffffffffffffffffffff1684600501546040518463ffffffff1660e01b81526004016107f99392919061151e565b600060405180830381600087803b15801561081357600080fd5b505af1158015610827573d6000803e3d6000fd5b505050505b5b60016000838152602001908152602001600020600080820160006101000a81549073ffffffffffffffffffffffffffffffffffffffff02191690556001820160006101000a81549073ffffffffffffffffffffffffffffffffffffffff021916905560028201600090556003820160006101000a81549073ffffffffffffffffffffffffffffffffffffffff02191690556004820160006101000a81549073ffffffffffffffffffffffffffffffffffffffff021916905560058201600090556006820160006101000a81549060ff02191690556006820160016101000a81549060ff02191690555050817ff6b6b4f7a13f02512c1b3aa8dcc4a07d7775a6a4becbd439efcbd37c5408e67f60405160405180910390a25050565b6000600160008581526020019081526020016000209050600073ffffffffffffffffffffffffffffffffffffffff168160030160009054906101000a900473ffffffffffffffffffffffffffffffffffffffff1673ffffffffffffffffffffffffffffffffffffffff16146109f2576040517f08c379a00000000000000000000000000000000000000000000000000000000081526004016109e990611727565b60405180910390fd5b8273ffffffffffffffffffffffffffffffffffffffff166323b872dd3330856040518463ffffffff1660e01b8152600401610a2f9392919061151e565b600060405180830381600087803b158015610a4957600080fd5b505af1158015610a5d573d6000803e3d6000fd5b50505050338160030160006101000a81548173ffffffffffffffffffffffffffffffffffffffff021916908373ffffffffffffffffffffffffffffffffffffffff160217905550828160040160006101000a81548173ffffffffffffffffffffffffffffffffffffffff021916908373ffffffffffffffffffffffffffffffffffffffff160217905550818160050181905550837f3d9c482f3ee3d12e5293baf5af18ac6c7148f67b280bf3037d5151b46c3064c8338585604051610b249392919061151e565b60405180910390a250505050565b610b3a610eb0565b610b446000610f37565b565b60006001600083815260200190815260200160002090503373ffffffffffffffffffffffffffffffffffffffff168160000160009054906101000a900473ffffffffffffffffffffffffffffffffffffffff1673ffffffffffffffffffffffffffffffffffffffff161480610c0a57503373ffffffffffffffffffffffffffffffffffffffff168160030160009054906101000a900473ffffffffffffffffffffffffffffffffffffffff1673ffffffffffffffffffffffffffffffffffffffff16145b610c49576040517f08c379a0000000000000000000000000000000000000000000000000000000008152600401610c4090611629565b60405180910390fd5b3373ffffffffffffffffffffffffffffffffffffffff168160000160009054906101000a900473ffffffffffffffffffffffffffffffffffffffff1673ffffffffffffffffffffffffffffffffffffffff1603610cc25760018160060160006101000a81548160ff021916908315150217905550610ce0565b60018160060160016101000a81548160ff0219169083151502179055505b8060060160009054906101000a900460ff168015610d0c57508060060160019054906101000a900460ff165b15610d1b57610d1a82610ffb565b5b5050565b60008060009054906101000a900473ffffffffffffffffffffffffffffffffffffffff16905090565b60016020528060005260406000206000915090508060000160009054906101000a900473ffffffffffffffffffffffffffffffffffffffff16908060010160009054906101000a900473ffffffffffffffffffffffffffffffffffffffff16908060020154908060030160009054906101000a900473ffffffffffffffffffffffffffffffffffffffff16908060040160009054906101000a900473ffffffffffffffffffffffffffffffffffffffff16908060050154908060060160009054906101000a900460ff16908060060160019054906101000a900460ff16905088565b610e32610eb0565b600073ffffffffffffffffffffffffffffffffffffffff168173ffffffffffffffffffffffffffffffffffffffff1603610ea45760006040517f1e4fbdf7000000000000000000000000000000000000000000000000000000008152600401610e9b919061143d565b60405180910390fd5b610ead81610f37565b50565b610eb86112a3565b73ffffffffffffffffffffffffffffffffffffffff16610ed6610d1f565b73ffffffffffffffffffffffffffffffffffffffff1614610f3557610ef96112a3565b6040517f118cdaa7000000000000000000000000000000000000000000000000000000008152600401610f2c919061143d565b60405180910390fd5b565b60008060009054906101000a900473ffffffffffffffffffffffffffffffffffffffff169050816000806101000a81548173ffffffffffffffffffffffffffffffffffffffff021916908373ffffffffffffffffffffffffffffffffffffffff1602179055508173ffffffffffffffffffffffffffffffffffffffff168173ffffffffffffffffffffffffffffffffffffffff167f8be0079c531659141344cd1fd0a4f28419497f9722a3daafe3b4186f6b6457e060405160405180910390a35050565b60006001600083815260200190815260200160002090508060010160009054906101000a900473ffffffffffffffffffffffffffffffffffffffff1673ffffffffffffffffffffffffffffffffffffffff166323b872dd308360030160009054906101000a900473ffffffffffffffffffffffffffffffffffffffff1684600201546040518463ffffffff1660e01b815260040161109b9392919061151e565b600060405180830381600087803b1580156110b557600080fd5b505af11580156110c9573d6000803e3d6000fd5b505050508060040160009054906101000a900473ffffffffffffffffffffffffffffffffffffffff1673ffffffffffffffffffffffffffffffffffffffff166323b872dd308360000160009054906101000a900473ffffffffffffffffffffffffffffffffffffffff1684600501546040518463ffffffff1660e01b81526004016111569392919061151e565b600060405180830381600087803b15801561117057600080fd5b505af1158015611184573d6000803e3d6000fd5b50505050817fd5a131753c24a95836b7fc71d22ce91f29fb999c68e4dd194e3265272e8749cf60405160405180910390a260016000838152602001908152602001600020600080820160006101000a81549073ffffffffffffffffffffffffffffffffffffffff02191690556001820160006101000a81549073ffffffffffffffffffffffffffffffffffffffff021916905560028201600090556003820160006101000a81549073ffffffffffffffffffffffffffffffffffffffff02191690556004820160006101000a81549073ffffffffffffffffffffffffffffffffffffffff021916905560058201600090556006820160006101000a81549060ff02191690556006820160016101000a81549060ff021916905550505050565b600033905090565b6000819050919050565b6112be816112ab565b82525050565b60006020820190506112d960008301846112b5565b92915050565b600080fd5b600073ffffffffffffffffffffffffffffffffffffffff82169050919050565b600061130f826112e4565b9050919050565b61131f81611304565b811461132a57600080fd5b50565b60008135905061133c81611316565b92915050565b61134b816112ab565b811461135657600080fd5b50565b60008135905061136881611342565b92915050565b60008060408385031215611385576113846112df565b5b60006113938582860161132d565b92505060206113a485828601611359565b9150509250929050565b6000602082840312156113c4576113c36112df565b5b60006113d284828501611359565b91505092915050565b6000806000606084860312156113f4576113f36112df565b5b600061140286828701611359565b93505060206114138682870161132d565b925050604061142486828701611359565b9150509250925092565b61143781611304565b82525050565b6000602082019050611452600083018461142e565b92915050565b60008115159050919050565b61146d81611458565b82525050565b600061010082019050611489600083018b61142e565b611496602083018a61142e565b6114a360408301896112b5565b6114b0606083018861142e565b6114bd608083018761142e565b6114ca60a08301866112b5565b6114d760c0830185611464565b6114e460e0830184611464565b9998505050505050505050565b600060208284031215611507576115066112df565b5b60006115158482850161132d565b91505092915050565b6000606082019050611533600083018661142e565b611540602083018561142e565b61154d60408301846112b5565b949350505050565b7f4e487b7100000000000000000000000000000000000000000000000000000000600052601160045260246000fd5b600061158f826112ab565b91507fffffffffffffffffffffffffffffffffffffffffffffffffffffffffffffffff82036115c1576115c0611555565b5b600182019050919050565b600082825260208201905092915050565b7f4e6f742061207061727469636970616e7420696e207468697320737761700000600082015250565b6000611613601e836115cc565b915061161e826115dd565b602082019050919050565b6000602082019050818103600083015261164281611606565b9050919050565b7f5377617020616c726561647920636f6e6669726d656420627920626f7468207060008201527f6172746965730000000000000000000000000000000000000000000000000000602082015250565b60006116a56026836115cc565b91506116b082611649565b604082019050919050565b600060208201905081810360008301526116d481611698565b9050919050565b7f5377617020616c72656164792061636365707465640000000000000000000000600082015250565b60006117116015836115cc565b915061171c826116db565b602082019050919050565b6000602082019050818103600083015261174081611704565b905091905056fea2646970667358221220bd9df024b8a3de22d4cf70c1390280ca6d129d15eac0f980eada5083154245bf64736f6c63430008180033",
  "linkReferences": {},
  "deployedLinkReferences": {}
}