{
  "_format": "hh-sol-artifact-1",
  "contractName": "CoolNFT",
  "sourceName": "contracts/CoolNFT.sol",
  "abi": [
    {
      "inputs": [],
      "stateMutability": "nonpayable",
      "type": "constructor"
    },
    {
      "inputs": [
        {
          "internalType": "address",
          "name": "sender",
          "type": "address"
        },
        {
          "internalType": "uint256",
          "name": "tokenId",
          "type": "uint256"
        },
        {
          "internalType": "address",
          "name": "owner",
          "type": "address"
        }
      ],
      "name": "ERC721IncorrectOwner",
      "type": "error"
    },
    {
      "inputs": [
        {
          "internalType": "address",
          "name": "operator",
          "type": "address"
        },
        {
          "internalType": "uint256",
          "name": "tokenId",
          "type": "uint256"
        }
      ],
      "name": "ERC721InsufficientApproval",
      "type": "error"
    },
    {
      "inputs": [
        {
          "internalType": "address",
          "name": "approver",
          "type": "address"
        }
      ],
      "name": "ERC721InvalidApprover",
      "type": "error"
    },
    {
      "inputs": [
        {
          "internalType": "address",
          "name": "operator",
          "type": "address"
        }
      ],
      "name": "ERC721InvalidOperator",
      "type": "error"
    },
    {
      "inputs": [
        {
          "internalType": "address",
          "name": "owner",
          "type": "address"
        }
      ],
      "name": "ERC721InvalidOwner",
      "type": "error"
    },
    {
      "inputs": [
        {
          "internalType": "address",
          "name": "receiver",
          "type": "address"
        }
      ],
      "name": "ERC721InvalidReceiver",
      "type": "error"
    },
    {
      "inputs": [
        {
          "internalType": "address",
          "name": "sender",
          "type": "address"
        }
      ],
      "name": "ERC721InvalidSender",
      "type": "error"
    },
    {
      "inputs": [
        {
          "internalType": "uint256",
          "name": "tokenId",
          "type": "uint256"
        }
      ],
      "name": "ERC721NonexistentToken",
      "type": "error"
    },
    {
      "inputs": [
        {
          "internalType": "address",
          "name": "owner",
          "type": "address"
        }
      ],
      "name": "OwnableInvalidOwner",
      "type": "error"
    },
    {
      "inputs": [
        {
          "internalType": "address",
          "name": "account",
          "type": "address"
        }
      ],
      "name": "OwnableUnauthorizedAccount",
      "type": "error"
    },
    {
      "anonymous": false,
      "inputs": [
        {
          "indexed": true,
          "internalType": "address",
          "name": "owner",
          "type": "address"
        },
        {
          "indexed": true,
          "internalType": "address",
          "name": "approved",
          "type": "address"
        },
        {
          "indexed": true,
          "internalType": "uint256",
          "name": "tokenId",
          "type": "uint256"
        }
      ],
      "name": "Approval",
      "type": "event"
    },
    {
      "anonymous": false,
      "inputs": [
        {
          "indexed": true,
          "internalType": "address",
          "name": "owner",
          "type": "address"
        },
        {
          "indexed": true,
          "internalType": "address",
          "name": "operator",
          "type": "address"
        },
        {
          "indexed": false,
          "internalType": "bool",
          "name": "approved",
          "type": "bool"
        }
      ],
      "name": "ApprovalForAll",
      "type": "event"
    },
    {
      "anonymous": false,
      "inputs": [
        {
          "indexed": false,
          "internalType": "uint256",
          "name": "_fromTokenId",
          "type": "uint256"
        },
        {
          "indexed": false,
          "internalType": "uint256",
          "name": "_toTokenId",
          "type": "uint256"
        }
      ],
      "name": "BatchMetadataUpdate",
      "type": "event"
    },
    {
      "anonymous": false,
      "inputs": [
        {
          "indexed": false,
          "internalType": "uint256",
          "name": "_tokenId",
          "type": "uint256"
        }
      ],
      "name": "MetadataUpdate",
      "type": "event"
    },
    {
      "anonymous": false,
      "inputs": [
        {
          "indexed": true,
          "internalType": "address",
          "name": "previousOwner",
          "type": "address"
        },
        {
          "indexed": true,
          "internalType": "address",
          "name": "newOwner",
          "type": "address"
        }
      ],
      "name": "OwnershipTransferred",
      "type": "event"
    },
    {
      "anonymous": false,
      "inputs": [
        {
          "indexed": true,
          "internalType": "address",
          "name": "from",
          "type": "address"
        },
        {
          "indexed": true,
          "internalType": "address",
          "name": "to",
          "type": "address"
        },
        {
          "indexed": true,
          "internalType": "uint256",
          "name": "tokenId",
          "type": "uint256"
        }
      ],
      "name": "Transfer",
      "type": "event"
    },
    {
      "inputs": [
        {
          "internalType": "address",
          "name": "to",
          "type": "address"
        },
        {
          "internalType": "uint256",
          "name": "tokenId",
          "type": "uint256"
        }
      ],
      "name": "approve",
      "outputs": [],
      "stateMutability": "nonpayable",
      "type": "function"
    },
    {
      "inputs": [
        {
          "internalType": "address",
          "name": "owner",
          "type": "address"
        }
      ],
      "name": "balanceOf",
      "outputs": [
        {
          "internalType": "uint256",
          "name": "",
          "type": "uint256"
        }
      ],
      "stateMutability": "view",
      "type": "function"
    },
    {
      "inputs": [
        {
          "internalType": "uint256",
          "name": "tokenId",
          "type": "uint256"
        }
      ],
      "name": "getApproved",
      "outputs": [
        {
          "internalType": "address",
          "name": "",
          "type": "address"
        }
      ],
      "stateMutability": "view",
      "type": "function"
    },
    {
      "inputs": [
        {
          "internalType": "address",
          "name": "owner",
          "type": "address"
        },
        {
          "internalType": "address",
          "name": "operator",
          "type": "address"
        }
      ],
      "name": "isApprovedForAll",
      "outputs": [
        {
          "internalType": "bool",
          "name": "",
          "type": "bool"
        }
      ],
      "stateMutability": "view",
      "type": "function"
    },
    {
      "inputs": [],
      "name": "mintNFT",
      "outputs": [
        {
          "internalType": "uint256",
          "name": "",
          "type": "uint256"
        }
      ],
      "stateMutability": "nonpayable",
      "type": "function"
    },
    {
      "inputs": [],
      "name": "name",
      "outputs": [
        {
          "internalType": "string",
          "name": "",
          "type": "string"
        }
      ],
      "stateMutability": "view",
      "type": "function"
    },
    {
      "inputs": [],
      "name": "owner",
      "outputs": [
        {
          "internalType": "address",
          "name": "",
          "type": "address"
        }
      ],
      "stateMutability": "view",
      "type": "function"
    },
    {
      "inputs": [
        {
          "internalType": "uint256",
          "name": "tokenId",
          "type": "uint256"
        }
      ],
      "name": "ownerOf",
      "outputs": [
        {
          "internalType": "address",
          "name": "",
          "type": "address"
        }
      ],
      "stateMutability": "view",
      "type": "function"
    },
    {
      "inputs": [],
      "name": "renounceOwnership",
      "outputs": [],
      "stateMutability": "nonpayable",
      "type": "function"
    },
    {
      "inputs": [
        {
          "internalType": "address",
          "name": "from",
          "type": "address"
        },
        {
          "internalType": "address",
          "name": "to",
          "type": "address"
        },
        {
          "internalType": "uint256",
          "name": "tokenId",
          "type": "uint256"
        }
      ],
      "name": "safeTransferFrom",
      "outputs": [],
      "stateMutability": "nonpayable",
      "type": "function"
    },
    {
      "inputs": [
        {
          "internalType": "address",
          "name": "from",
          "type": "address"
        },
        {
          "internalType": "address",
          "name": "to",
          "type": "address"
        },
        {
          "internalType": "uint256",
          "name": "tokenId",
          "type": "uint256"
        },
        {
          "internalType": "bytes",
          "name": "data",
          "type": "bytes"
        }
      ],
      "name": "safeTransferFrom",
      "outputs": [],
      "stateMutability": "nonpayable",
      "type": "function"
    },
    {
      "inputs": [
        {
          "internalType": "address",
          "name": "operator",
          "type": "address"
        },
        {
          "internalType": "bool",
          "name": "approved",
          "type": "bool"
        }
      ],
      "name": "setApprovalForAll",
      "outputs": [],
      "stateMutability": "nonpayable",
      "type": "function"
    },
    {
      "inputs": [
        {
          "internalType": "bytes4",
          "name": "interfaceId",
          "type": "bytes4"
        }
      ],
      "name": "supportsInterface",
      "outputs": [
        {
          "internalType": "bool",
          "name": "",
          "type": "bool"
        }
      ],
      "stateMutability": "view",
      "type": "function"
    },
    {
      "inputs": [],
      "name": "symbol",
      "outputs": [
        {
          "internalType": "string",
          "name": "",
          "type": "string"
        }
      ],
      "stateMutability": "view",
      "type": "function"
    },
    {
      "inputs": [],
      "name": "tokenCounter",
      "outputs": [
        {
          "internalType": "uint256",
          "name": "",
          "type": "uint256"
        }
      ],
      "stateMutability": "view",
      "type": "function"
    },
    {
      "inputs": [
        {
          "internalType": "uint256",
          "name": "tokenId",
          "type": "uint256"
        }
      ],
      "name": "tokenURI",
      "outputs": [
        {
          "internalType": "string",
          "name": "",
          "type": "string"
        }
      ],
      "stateMutability": "view",
      "type": "function"
    },
    {
      "inputs": [
        {
          "internalType": "address",
          "name": "from",
          "type": "address"
        },
        {
          "internalType": "address",
          "name": "to",
          "type": "address"
        },
        {
          "internalType": "uint256",
          "name": "tokenId",
          "type": "uint256"
        }
      ],
      "name": "transferFrom",
      "outputs": [],
      "stateMutability": "nonpayable",
      "type": "function"
    },
    {
      "inputs": [
        {
          "internalType": "address",
          "name": "newOwner",
          "type": "address"
        }
      ],
      "name": "transferOwnership",
      "outputs": [],
      "stateMutability": "nonpayable",
      "type": "function"
    }
  ],
  "bytecode": "0x60806040523480156200001157600080fd5b50336040518060400160405280600781526020017f436f6f6c4e4654000000000000000000000000000000000000000000000000008152506040518060400160405280600481526020017f434e46540000000000000000000000000000000000000000000000000000000081525081600090816200009091906200047a565b508060019081620000a291906200047a565b505050600073ffffffffffffffffffffffffffffffffffffffff168173ffffffffffffffffffffffffffffffffffffffff16036200011a5760006040517f1e4fbdf7000000000000000000000000000000000000000000000000000000008152600401620001119190620005a6565b60405180910390fd5b6200012b816200013a60201b60201c565b506000600881905550620005c3565b6000600760009054906101000a900473ffffffffffffffffffffffffffffffffffffffff16905081600760006101000a81548173ffffffffffffffffffffffffffffffffffffffff021916908373ffffffffffffffffffffffffffffffffffffffff1602179055508173ffffffffffffffffffffffffffffffffffffffff168173ffffffffffffffffffffffffffffffffffffffff167f8be0079c531659141344cd1fd0a4f28419497f9722a3daafe3b4186f6b6457e060405160405180910390a35050565b600081519050919050565b7f4e487b7100000000000000000000000000000000000000000000000000000000600052604160045260246000fd5b7f4e487b7100000000000000000000000000000000000000000000000000000000600052602260045260246000fd5b600060028204905060018216806200028257607f821691505b6020821081036200029857620002976200023a565b5b50919050565b60008190508160005260206000209050919050565b60006020601f8301049050919050565b600082821b905092915050565b600060088302620003027fffffffffffffffffffffffffffffffffffffffffffffffffffffffffffffffff82620002c3565b6200030e8683620002c3565b95508019841693508086168417925050509392505050565b6000819050919050565b6000819050919050565b60006200035b620003556200034f8462000326565b62000330565b62000326565b9050919050565b6000819050919050565b62000377836200033a565b6200038f620003868262000362565b848454620002d0565b825550505050565b600090565b620003a662000397565b620003b38184846200036c565b505050565b5b81811015620003db57620003cf6000826200039c565b600181019050620003b9565b5050565b601f8211156200042a57620003f4816200029e565b620003ff84620002b3565b810160208510156200040f578190505b620004276200041e85620002b3565b830182620003b8565b50505b505050565b600082821c905092915050565b60006200044f600019846008026200042f565b1980831691505092915050565b60006200046a83836200043c565b9150826002028217905092915050565b620004858262000200565b67ffffffffffffffff811115620004a157620004a06200020b565b5b620004ad825462000269565b620004ba828285620003df565b600060209050601f831160018114620004f25760008415620004dd578287015190505b620004e985826200045c565b86555062000559565b601f19841662000502866200029e565b60005b828110156200052c5784890151825560018201915060208501945060208101905062000505565b868310156200054c578489015162000548601f8916826200043c565b8355505b6001600288020188555050505b505050505050565b600073ffffffffffffffffffffffffffffffffffffffff82169050919050565b60006200058e8262000561565b9050919050565b620005a08162000581565b82525050565b6000602082019050620005bd600083018462000595565b92915050565b61355980620005d36000396000f3fe608060405234801561001057600080fd5b50600436106101165760003560e01c8063715018a6116100a2578063b88d4fde11610071578063b88d4fde146102cd578063c87b56dd146102e9578063d082e38114610319578063e985e9c514610337578063f2fde38b1461036757610116565b8063715018a61461026b5780638da5cb5b1461027557806395d89b4114610293578063a22cb465146102b157610116565b806314f710fe116100e957806314f710fe146101b557806323b872dd146101d357806342842e0e146101ef5780636352211e1461020b57806370a082311461023b57610116565b806301ffc9a71461011b57806306fdde031461014b578063081812fc14610169578063095ea7b314610199575b600080fd5b610135600480360381019061013091906120b9565b610383565b6040516101429190612101565b60405180910390f35b6101536103e4565b60405161016091906121ac565b60405180910390f35b610183600480360381019061017e9190612204565b610476565b6040516101909190612272565b60405180910390f35b6101b360048036038101906101ae91906122b9565b610492565b005b6101bd6104a8565b6040516101ca9190612308565b60405180910390f35b6101ed60048036038101906101e89190612323565b61050f565b005b61020960048036038101906102049190612323565b610611565b005b61022560048036038101906102209190612204565b610631565b6040516102329190612272565b60405180910390f35b61025560048036038101906102509190612376565b610643565b6040516102629190612308565b60405180910390f35b6102736106fd565b005b61027d610711565b60405161028a9190612272565b60405180910390f35b61029b61073b565b6040516102a891906121ac565b60405180910390f35b6102cb60048036038101906102c691906123cf565b6107cd565b005b6102e760048036038101906102e29190612544565b6107e3565b005b61030360048036038101906102fe9190612204565b610800565b60405161031091906121ac565b60405180910390f35b610321610913565b60405161032e9190612308565b60405180910390f35b610351600480360381019061034c91906125c7565b610919565b60405161035e9190612101565b60405180910390f35b610381600480360381019061037c9190612376565b6109ad565b005b6000634906490660e01b7bffffffffffffffffffffffffffffffffffffffffffffffffffffffff1916827bffffffffffffffffffffffffffffffffffffffffffffffffffffffff191614806103dd57506103dc82610a33565b5b9050919050565b6060600080546103f390612636565b80601f016020809104026020016040519081016040528092919081815260200182805461041f90612636565b801561046c5780601f106104415761010080835404028352916020019161046c565b820191906000526020600020905b81548152906001019060200180831161044f57829003601f168201915b5050505050905090565b600061048182610b15565b5061048b82610b9d565b9050919050565b6104a4828261049f610bda565b610be2565b5050565b600080600854905060006104bb82610bf4565b905060006104c882610e40565b905060006104d582610e77565b90506104e13385610ec7565b6104eb8482610ee5565b6001600860008282546104fe9190612696565b925050819055508394505050505090565b600073ffffffffffffffffffffffffffffffffffffffff168273ffffffffffffffffffffffffffffffffffffffff16036105815760006040517f64a0ae920000000000000000000000000000000000000000000000000000000081526004016105789190612272565b60405180910390fd5b60006105958383610590610bda565b610f41565b90508373ffffffffffffffffffffffffffffffffffffffff168173ffffffffffffffffffffffffffffffffffffffff161461060b578382826040517f64283d7b000000000000000000000000000000000000000000000000000000008152600401610602939291906126ca565b60405180910390fd5b50505050565b61062c838383604051806020016040528060008152506107e3565b505050565b600061063c82610b15565b9050919050565b60008073ffffffffffffffffffffffffffffffffffffffff168273ffffffffffffffffffffffffffffffffffffffff16036106b65760006040517f89c62b640000000000000000000000000000000000000000000000000000000081526004016106ad9190612272565b60405180910390fd5b600360008373ffffffffffffffffffffffffffffffffffffffff1673ffffffffffffffffffffffffffffffffffffffff168152602001908152602001600020549050919050565b61070561115b565b61070f60006111e2565b565b6000600760009054906101000a900473ffffffffffffffffffffffffffffffffffffffff16905090565b60606001805461074a90612636565b80601f016020809104026020016040519081016040528092919081815260200182805461077690612636565b80156107c35780601f10610798576101008083540402835291602001916107c3565b820191906000526020600020905b8154815290600101906020018083116107a657829003601f168201915b5050505050905090565b6107df6107d8610bda565b83836112a8565b5050565b6107ee84848461050f565b6107fa84848484611417565b50505050565b606061080b82610b15565b50600060066000848152602001908152602001600020805461082c90612636565b80601f016020809104026020016040519081016040528092919081815260200182805461085890612636565b80156108a55780601f1061087a576101008083540402835291602001916108a5565b820191906000526020600020905b81548152906001019060200180831161088857829003601f168201915b5050505050905060006108b66115ce565b905060008151036108cb57819250505061090e565b6000825111156109005780826040516020016108e892919061273d565b6040516020818303038152906040529250505061090e565b610909846115e5565b925050505b919050565b60085481565b6000600560008473ffffffffffffffffffffffffffffffffffffffff1673ffffffffffffffffffffffffffffffffffffffff16815260200190815260200160002060008373ffffffffffffffffffffffffffffffffffffffff1673ffffffffffffffffffffffffffffffffffffffff16815260200190815260200160002060009054906101000a900460ff16905092915050565b6109b561115b565b600073ffffffffffffffffffffffffffffffffffffffff168173ffffffffffffffffffffffffffffffffffffffff1603610a275760006040517f1e4fbdf7000000000000000000000000000000000000000000000000000000008152600401610a1e9190612272565b60405180910390fd5b610a30816111e2565b50565b60007f80ac58cd000000000000000000000000000000000000000000000000000000007bffffffffffffffffffffffffffffffffffffffffffffffffffffffff1916827bffffffffffffffffffffffffffffffffffffffffffffffffffffffff19161480610afe57507f5b5e139f000000000000000000000000000000000000000000000000000000007bffffffffffffffffffffffffffffffffffffffffffffffffffffffff1916827bffffffffffffffffffffffffffffffffffffffffffffffffffffffff1916145b80610b0e5750610b0d8261164e565b5b9050919050565b600080610b21836116b8565b9050600073ffffffffffffffffffffffffffffffffffffffff168173ffffffffffffffffffffffffffffffffffffffff1603610b9457826040517f7e273289000000000000000000000000000000000000000000000000000000008152600401610b8b9190612308565b60405180910390fd5b80915050919050565b60006004600083815260200190815260200160002060009054906101000a900473ffffffffffffffffffffffffffffffffffffffff169050919050565b600033905090565b610bef83838360016116f5565b505050565b6060600082334244604051602001610c0f94939291906127ca565b6040516020818303038152906040528051906020012060001c90506000610c4261010083610c3d9190612847565b6118ba565b610c636101008085610c549190612878565b610c5e9190612847565b6118ba565b610c916101008061010087610c789190612878565b610c829190612878565b610c8c9190612847565b6118ba565b604051602001610ca39392919061298d565b60405160208183030381529060405290506000610cef610100806101008087610ccc9190612878565b610cd69190612878565b610ce09190612878565b610cea9190612847565b6118ba565b610d35610100806101008061010089610d089190612878565b610d129190612878565b610d1c9190612878565b610d269190612878565b610d309190612847565b6118ba565b610d866101008061010080610100808b610d4f9190612878565b610d599190612878565b610d639190612878565b610d6d9190612878565b610d779190612878565b610d819190612847565b6118ba565b604051602001610d989392919061298d565b6040516020818303038152906040529050600082610dcd606460c887610dbe9190612847565b610dc89190612696565b6118ba565b610dee606460c888610ddf9190612847565b610de99190612696565b6118ba565b610e0e60328089610dff9190612847565b610e099190612696565b6118ba565b85604051602001610e23959493929190612dc6565b604051602081830303815290604052905080945050505050919050565b60606000610e4d83611a1a565b905080604051602001610e609190612ecb565b604051602081830303815290604052915050919050565b6060610ea182604051602001610e8d9190612fd1565b604051602081830303815290604052611a1a565b604051602001610eb1919061304a565b6040516020818303038152906040529050919050565b610ee1828260405180602001604052806000815250611b92565b5050565b80600660008481526020019081526020016000209081610f059190613218565b507ff8e1a15aba9398e019f0b49df1a4fde98ee17ae345cb5f6b5e2c27f5033e8ce782604051610f359190612308565b60405180910390a15050565b600080610f4d846116b8565b9050600073ffffffffffffffffffffffffffffffffffffffff168373ffffffffffffffffffffffffffffffffffffffff1614610f8f57610f8e818486611bae565b5b600073ffffffffffffffffffffffffffffffffffffffff168173ffffffffffffffffffffffffffffffffffffffff161461102057610fd16000856000806116f5565b6001600360008373ffffffffffffffffffffffffffffffffffffffff1673ffffffffffffffffffffffffffffffffffffffff168152602001908152602001600020600082825403925050819055505b600073ffffffffffffffffffffffffffffffffffffffff168573ffffffffffffffffffffffffffffffffffffffff16146110a3576001600360008773ffffffffffffffffffffffffffffffffffffffff1673ffffffffffffffffffffffffffffffffffffffff168152602001908152602001600020600082825401925050819055505b846002600086815260200190815260200160002060006101000a81548173ffffffffffffffffffffffffffffffffffffffff021916908373ffffffffffffffffffffffffffffffffffffffff160217905550838573ffffffffffffffffffffffffffffffffffffffff168273ffffffffffffffffffffffffffffffffffffffff167fddf252ad1be2c89b69c2b068fc378daa952ba7f163c4a11628f55a4df523b3ef60405160405180910390a4809150509392505050565b611163610bda565b73ffffffffffffffffffffffffffffffffffffffff16611181610711565b73ffffffffffffffffffffffffffffffffffffffff16146111e0576111a4610bda565b6040517f118cdaa70000000000000000000000000000000000000000000000000000000081526004016111d79190612272565b60405180910390fd5b565b6000600760009054906101000a900473ffffffffffffffffffffffffffffffffffffffff16905081600760006101000a81548173ffffffffffffffffffffffffffffffffffffffff021916908373ffffffffffffffffffffffffffffffffffffffff1602179055508173ffffffffffffffffffffffffffffffffffffffff168173ffffffffffffffffffffffffffffffffffffffff167f8be0079c531659141344cd1fd0a4f28419497f9722a3daafe3b4186f6b6457e060405160405180910390a35050565b600073ffffffffffffffffffffffffffffffffffffffff168273ffffffffffffffffffffffffffffffffffffffff160361131957816040517f5b08ba180000000000000000000000000000000000000000000000000000000081526004016113109190612272565b60405180910390fd5b80600560008573ffffffffffffffffffffffffffffffffffffffff1673ffffffffffffffffffffffffffffffffffffffff16815260200190815260200160002060008473ffffffffffffffffffffffffffffffffffffffff1673ffffffffffffffffffffffffffffffffffffffff16815260200190815260200160002060006101000a81548160ff0219169083151502179055508173ffffffffffffffffffffffffffffffffffffffff168373ffffffffffffffffffffffffffffffffffffffff167f17307eab39ab6107e8899845ad3d59bd9653f200f220920489ca2b5937696c318360405161140a9190612101565b60405180910390a3505050565b60008373ffffffffffffffffffffffffffffffffffffffff163b11156115c8578273ffffffffffffffffffffffffffffffffffffffff1663150b7a0261145b610bda565b8685856040518563ffffffff1660e01b815260040161147d949392919061333f565b6020604051808303816000875af19250505080156114b957506040513d601f19601f820116820180604052508101906114b691906133a0565b60015b61153d573d80600081146114e9576040519150601f19603f3d011682016040523d82523d6000602084013e6114ee565b606091505b50600081510361153557836040517f64a0ae9200000000000000000000000000000000000000000000000000000000815260040161152c9190612272565b60405180910390fd5b805181602001fd5b63150b7a0260e01b7bffffffffffffffffffffffffffffffffffffffffffffffffffffffff1916817bffffffffffffffffffffffffffffffffffffffffffffffffffffffff1916146115c657836040517f64a0ae920000000000000000000000000000000000000000000000000000000081526004016115bd9190612272565b60405180910390fd5b505b50505050565b606060405180602001604052806000815250905090565b60606115f082610b15565b5060006115fb6115ce565b9050600081511161161b5760405180602001604052806000815250611646565b8061162584611c72565b60405160200161163692919061273d565b6040516020818303038152906040525b915050919050565b60007f01ffc9a7000000000000000000000000000000000000000000000000000000007bffffffffffffffffffffffffffffffffffffffffffffffffffffffff1916827bffffffffffffffffffffffffffffffffffffffffffffffffffffffff1916149050919050565b60006002600083815260200190815260200160002060009054906101000a900473ffffffffffffffffffffffffffffffffffffffff169050919050565b808061172e5750600073ffffffffffffffffffffffffffffffffffffffff168273ffffffffffffffffffffffffffffffffffffffff1614155b1561186257600061173e84610b15565b9050600073ffffffffffffffffffffffffffffffffffffffff168373ffffffffffffffffffffffffffffffffffffffff16141580156117a957508273ffffffffffffffffffffffffffffffffffffffff168173ffffffffffffffffffffffffffffffffffffffff1614155b80156117bc57506117ba8184610919565b155b156117fe57826040517fa9fbf51f0000000000000000000000000000000000000000000000000000000081526004016117f59190612272565b60405180910390fd5b811561186057838573ffffffffffffffffffffffffffffffffffffffff168273ffffffffffffffffffffffffffffffffffffffff167f8c5be1e5ebec7d5bd14f71427d1e84f3dd0314c0f7b2291e5b200ac8c7c3b92560405160405180910390a45b505b836004600085815260200190815260200160002060006101000a81548173ffffffffffffffffffffffffffffffffffffffff021916908373ffffffffffffffffffffffffffffffffffffffff16021790555050505050565b606060008203611901576040518060400160405280600181526020017f30000000000000000000000000000000000000000000000000000000000000008152509050611a15565b600082905060005b6000821461193357808061191c906133cd565b915050600a8261192c9190612878565b9150611909565b60008167ffffffffffffffff81111561194f5761194e612419565b5b6040519080825280601f01601f1916602001820160405280156119815781602001600182028036833780820191505090505b5090505b60008514611a0e5760018261199a9190613415565b9150600a856119a99190612847565b60306119b59190612696565b60f81b8183815181106119cb576119ca613449565b5b60200101907effffffffffffffffffffffffffffffffffffffffffffffffffffffffffffff1916908160001a905350600a85611a079190612878565b9450611985565b8093505050505b919050565b60606000825103611a3c57604051806020016040528060008152509050611b8d565b60006040518060600160405280604081526020016134e46040913990506000600360028551611a6b9190612696565b611a759190612878565b6004611a819190613478565b90506000602082611a929190612696565b67ffffffffffffffff811115611aab57611aaa612419565b5b6040519080825280601f01601f191660200182016040528015611add5781602001600182028036833780820191505090505b509050818152600183018586518101602084015b81831015611b4c576003830192508251603f8160121c168501518253600182019150603f81600c1c168501518253600182019150603f8160061c168501518253600182019150603f8116850151825360018201915050611af1565b600389510660018114611b665760028114611b7657611b81565b613d3d60f01b6002830352611b81565b603d60f81b60018303525b50505050508093505050505b919050565b611b9c8383611d40565b611ba96000848484611417565b505050565b611bb9838383611e39565b611c6d57600073ffffffffffffffffffffffffffffffffffffffff168373ffffffffffffffffffffffffffffffffffffffff1603611c2e57806040517f7e273289000000000000000000000000000000000000000000000000000000008152600401611c259190612308565b60405180910390fd5b81816040517f177e802f000000000000000000000000000000000000000000000000000000008152600401611c649291906134ba565b60405180910390fd5b505050565b606060006001611c8184611efa565b01905060008167ffffffffffffffff811115611ca057611c9f612419565b5b6040519080825280601f01601f191660200182016040528015611cd25781602001600182028036833780820191505090505b509050600082602001820190505b600115611d35578080600190039150507f3031323334353637383961626364656600000000000000000000000000000000600a86061a8153600a8581611d2957611d28612818565b5b04945060008503611ce0575b819350505050919050565b600073ffffffffffffffffffffffffffffffffffffffff168273ffffffffffffffffffffffffffffffffffffffff1603611db25760006040517f64a0ae92000000000000000000000000000000000000000000000000000000008152600401611da99190612272565b60405180910390fd5b6000611dc083836000610f41565b9050600073ffffffffffffffffffffffffffffffffffffffff168173ffffffffffffffffffffffffffffffffffffffff1614611e345760006040517f73c6ac6e000000000000000000000000000000000000000000000000000000008152600401611e2b9190612272565b60405180910390fd5b505050565b60008073ffffffffffffffffffffffffffffffffffffffff168373ffffffffffffffffffffffffffffffffffffffff1614158015611ef157508273ffffffffffffffffffffffffffffffffffffffff168473ffffffffffffffffffffffffffffffffffffffff161480611eb25750611eb18484610919565b5b80611ef057508273ffffffffffffffffffffffffffffffffffffffff16611ed883610b9d565b73ffffffffffffffffffffffffffffffffffffffff16145b5b90509392505050565b600080600090507a184f03e93ff9f4daa797ed6e38ed64bf6a1f0100000000000000008310611f58577a184f03e93ff9f4daa797ed6e38ed64bf6a1f0100000000000000008381611f4e57611f4d612818565b5b0492506040810190505b6d04ee2d6d415b85acef81000000008310611f95576d04ee2d6d415b85acef81000000008381611f8b57611f8a612818565b5b0492506020810190505b662386f26fc100008310611fc457662386f26fc100008381611fba57611fb9612818565b5b0492506010810190505b6305f5e1008310611fed576305f5e1008381611fe357611fe2612818565b5b0492506008810190505b612710831061201257612710838161200857612007612818565b5b0492506004810190505b60648310612035576064838161202b5761202a612818565b5b0492506002810190505b600a8310612044576001810190505b80915050919050565b6000604051905090565b600080fd5b600080fd5b60007fffffffff0000000000000000000000000000000000000000000000000000000082169050919050565b61209681612061565b81146120a157600080fd5b50565b6000813590506120b38161208d565b92915050565b6000602082840312156120cf576120ce612057565b5b60006120dd848285016120a4565b91505092915050565b60008115159050919050565b6120fb816120e6565b82525050565b600060208201905061211660008301846120f2565b92915050565b600081519050919050565b600082825260208201905092915050565b60005b8381101561215657808201518184015260208101905061213b565b60008484015250505050565b6000601f19601f8301169050919050565b600061217e8261211c565b6121888185612127565b9350612198818560208601612138565b6121a181612162565b840191505092915050565b600060208201905081810360008301526121c68184612173565b905092915050565b6000819050919050565b6121e1816121ce565b81146121ec57600080fd5b50565b6000813590506121fe816121d8565b92915050565b60006020828403121561221a57612219612057565b5b6000612228848285016121ef565b91505092915050565b600073ffffffffffffffffffffffffffffffffffffffff82169050919050565b600061225c82612231565b9050919050565b61226c81612251565b82525050565b60006020820190506122876000830184612263565b92915050565b61229681612251565b81146122a157600080fd5b50565b6000813590506122b38161228d565b92915050565b600080604083850312156122d0576122cf612057565b5b60006122de858286016122a4565b92505060206122ef858286016121ef565b9150509250929050565b612302816121ce565b82525050565b600060208201905061231d60008301846122f9565b92915050565b60008060006060848603121561233c5761233b612057565b5b600061234a868287016122a4565b935050602061235b868287016122a4565b925050604061236c868287016121ef565b9150509250925092565b60006020828403121561238c5761238b612057565b5b600061239a848285016122a4565b91505092915050565b6123ac816120e6565b81146123b757600080fd5b50565b6000813590506123c9816123a3565b92915050565b600080604083850312156123e6576123e5612057565b5b60006123f4858286016122a4565b9250506020612405858286016123ba565b9150509250929050565b600080fd5b600080fd5b7f4e487b7100000000000000000000000000000000000000000000000000000000600052604160045260246000fd5b61245182612162565b810181811067ffffffffffffffff821117156124705761246f612419565b5b80604052505050565b600061248361204d565b905061248f8282612448565b919050565b600067ffffffffffffffff8211156124af576124ae612419565b5b6124b882612162565b9050602081019050919050565b82818337600083830152505050565b60006124e76124e284612494565b612479565b90508281526020810184848401111561250357612502612414565b5b61250e8482856124c5565b509392505050565b600082601f83011261252b5761252a61240f565b5b813561253b8482602086016124d4565b91505092915050565b6000806000806080858703121561255e5761255d612057565b5b600061256c878288016122a4565b945050602061257d878288016122a4565b935050604061258e878288016121ef565b925050606085013567ffffffffffffffff8111156125af576125ae61205c565b5b6125bb87828801612516565b91505092959194509250565b600080604083850312156125de576125dd612057565b5b60006125ec858286016122a4565b92505060206125fd858286016122a4565b9150509250929050565b7f4e487b7100000000000000000000000000000000000000000000000000000000600052602260045260246000fd5b6000600282049050600182168061264e57607f821691505b60208210810361266157612660612607565b5b50919050565b7f4e487b7100000000000000000000000000000000000000000000000000000000600052601160045260246000fd5b60006126a1826121ce565b91506126ac836121ce565b92508282019050808211156126c4576126c3612667565b5b92915050565b60006060820190506126df6000830186612263565b6126ec60208301856122f9565b6126f96040830184612263565b949350505050565b600081905092915050565b60006127178261211c565b6127218185612701565b9350612731818560208601612138565b80840191505092915050565b6000612749828561270c565b9150612755828461270c565b91508190509392505050565b6000819050919050565b61277c612777826121ce565b612761565b82525050565b60008160601b9050919050565b600061279a82612782565b9050919050565b60006127ac8261278f565b9050919050565b6127c46127bf82612251565b6127a1565b82525050565b60006127d6828761276b565b6020820191506127e682866127b3565b6014820191506127f6828561276b565b602082019150612806828461276b565b60208201915081905095945050505050565b7f4e487b7100000000000000000000000000000000000000000000000000000000600052601260045260246000fd5b6000612852826121ce565b915061285d836121ce565b92508261286d5761286c612818565b5b828206905092915050565b6000612883826121ce565b915061288e836121ce565b92508261289e5761289d612818565b5b828204905092915050565b7f7267622800000000000000000000000000000000000000000000000000000000600082015250565b60006128df600483612701565b91506128ea826128a9565b600482019050919050565b7f2c00000000000000000000000000000000000000000000000000000000000000600082015250565b600061292b600183612701565b9150612936826128f5565b600182019050919050565b7f2900000000000000000000000000000000000000000000000000000000000000600082015250565b6000612977600183612701565b915061298282612941565b600182019050919050565b6000612998826128d2565b91506129a4828661270c565b91506129af8261291e565b91506129bb828561270c565b91506129c68261291e565b91506129d2828461270c565b91506129dd8261296a565b9150819050949350505050565b7f3c73766720786d6c6e733d27687474703a2f2f7777772e77332e6f72672f323060008201527f30302f737667272076696577426f783d2730203020343030203430302720776960208201527f6474683d2734303027206865696768743d27343030273e000000000000000000604082015250565b6000612a6c605783612701565b9150612a77826129ea565b605782019050919050565b7f3c726563742077696474683d2734303027206865696768743d2734303027206660008201527f696c6c3d27000000000000000000000000000000000000000000000000000000602082015250565b6000612ade602583612701565b9150612ae982612a82565b602582019050919050565b7f272f3e0000000000000000000000000000000000000000000000000000000000600082015250565b6000612b2a600383612701565b9150612b3582612af4565b600382019050919050565b7f3c636972636c652063783d270000000000000000000000000000000000000000600082015250565b6000612b76600c83612701565b9150612b8182612b40565b600c82019050919050565b7f272063793d270000000000000000000000000000000000000000000000000000600082015250565b6000612bc2600683612701565b9150612bcd82612b8c565b600682019050919050565b7f2720723d27000000000000000000000000000000000000000000000000000000600082015250565b6000612c0e600583612701565b9150612c1982612bd8565b600582019050919050565b7f272066696c6c3d27000000000000000000000000000000000000000000000000600082015250565b6000612c5a600883612701565b9150612c6582612c24565b600882019050919050565b7f27206f7061636974793d27302e36272f3e000000000000000000000000000000600082015250565b6000612ca6601183612701565b9150612cb182612c70565b601182019050919050565b7f3c7265637420783d2735302720793d273530272077696474683d27333030272060008201527f6865696768743d27333030272066696c6c3d276e6f6e6527207374726f6b653d60208201527f27776869746527207374726f6b652d77696474683d27323027206f706163697460408201527f793d27302e32272f3e0000000000000000000000000000000000000000000000606082015250565b6000612d64606983612701565b9150612d6f82612cbc565b606982019050919050565b7f3c2f7376673e0000000000000000000000000000000000000000000000000000600082015250565b6000612db0600683612701565b9150612dbb82612d7a565b600682019050919050565b6000612dd182612a5f565b9150612ddc82612ad1565b9150612de8828861270c565b9150612df382612b1d565b9150612dfe82612b69565b9150612e0a828761270c565b9150612e1582612bb5565b9150612e21828661270c565b9150612e2c82612c01565b9150612e38828561270c565b9150612e4382612c4d565b9150612e4f828461270c565b9150612e5a82612c99565b9150612e6582612d57565b9150612e7082612da3565b91508190509695505050505050565b7f646174613a696d6167652f7376672b786d6c3b6261736536342c000000000000600082015250565b6000612eb5601a83612701565b9150612ec082612e7f565b601a82019050919050565b6000612ed682612ea8565b9150612ee2828461270c565b915081905092915050565b7f7b226e616d65223a22436f6f6c4e4654222c20226465736372697074696f6e2260008201527f3a22416e206175746f6d61746963616c6c792067656e65726174656420636f6f60208201527f6c204e46542e222c2022696d616765223a220000000000000000000000000000604082015250565b6000612f6f605283612701565b9150612f7a82612eed565b605282019050919050565b7f227d000000000000000000000000000000000000000000000000000000000000600082015250565b6000612fbb600283612701565b9150612fc682612f85565b600282019050919050565b6000612fdc82612f62565b9150612fe8828461270c565b9150612ff382612fae565b915081905092915050565b7f646174613a6170706c69636174696f6e2f6a736f6e3b6261736536342c000000600082015250565b6000613034601d83612701565b915061303f82612ffe565b601d82019050919050565b600061305582613027565b9150613061828461270c565b915081905092915050565b60008190508160005260206000209050919050565b60006020601f8301049050919050565b600082821b905092915050565b6000600883026130ce7fffffffffffffffffffffffffffffffffffffffffffffffffffffffffffffffff82613091565b6130d88683613091565b95508019841693508086168417925050509392505050565b6000819050919050565b600061311561311061310b846121ce565b6130f0565b6121ce565b9050919050565b6000819050919050565b61312f836130fa565b61314361313b8261311c565b84845461309e565b825550505050565b600090565b61315861314b565b613163818484613126565b505050565b5b818110156131875761317c600082613150565b600181019050613169565b5050565b601f8211156131cc5761319d8161306c565b6131a684613081565b810160208510156131b5578190505b6131c96131c185613081565b830182613168565b50505b505050565b600082821c905092915050565b60006131ef600019846008026131d1565b1980831691505092915050565b600061320883836131de565b9150826002028217905092915050565b6132218261211c565b67ffffffffffffffff81111561323a57613239612419565b5b6132448254612636565b61324f82828561318b565b600060209050601f8311600181146132825760008415613270578287015190505b61327a85826131fc565b8655506132e2565b601f1984166132908661306c565b60005b828110156132b857848901518255600182019150602085019450602081019050613293565b868310156132d557848901516132d1601f8916826131de565b8355505b6001600288020188555050505b505050505050565b600081519050919050565b600082825260208201905092915050565b6000613311826132ea565b61331b81856132f5565b935061332b818560208601612138565b61333481612162565b840191505092915050565b60006080820190506133546000830187612263565b6133616020830186612263565b61336e60408301856122f9565b81810360608301526133808184613306565b905095945050505050565b60008151905061339a8161208d565b92915050565b6000602082840312156133b6576133b5612057565b5b60006133c48482850161338b565b91505092915050565b60006133d8826121ce565b91507fffffffffffffffffffffffffffffffffffffffffffffffffffffffffffffffff820361340a57613409612667565b5b600182019050919050565b6000613420826121ce565b915061342b836121ce565b925082820390508181111561344357613442612667565b5b92915050565b7f4e487b7100000000000000000000000000000000000000000000000000000000600052603260045260246000fd5b6000613483826121ce565b915061348e836121ce565b925082820261349c816121ce565b915082820484148315176134b3576134b2612667565b5b5092915050565b60006040820190506134cf6000830185612263565b6134dc60208301846122f9565b939250505056fe4142434445464748494a4b4c4d4e4f505152535455565758595a6162636465666768696a6b6c6d6e6f707172737475767778797a303132333435363738392b2fa26469706673582212205d4abedd150c652ed566cbdff4389f0e76fb08b964abe1e69bb986500dcaf33e64736f6c63430008180033",
  "linkReferences": {},
  "deployedLinkReferences": {}
}